:020000040800F2
:1000000028050020010100084F170008C31300084D
:100010004D17000891010008751900080000000044
:10002000000000000000000000000000531700085E
:100030009301000800000000511700085517000840
:100040001B0100081B0100081B0100081B01000820
:100050001B0100081B0100081B0100081B01000810
:100060001B0100081B0100081B0100081B01000800
:100070001B0100081B0100081B0100081B010008F0
:100080001B0100081B0100081B0100081B010008E0
:100090001B0100081B0100081B0100081B010008D0
:1000A0001B010008E11700081B0100081B010008E4
:1000B0001B0100081B0100081B0100081B010008B0
:1000C0001B0100081B0100081B0100081B010008A0
:1000D0001B0100081B0100081B0100081B01000890
:1000E0001B0100081B0100081B010008DFF80CD0F1
:1000F00000F03CF800480047C5190008280500201A
:100100000648804706480047FEE7FEE7FEE7FEE7B1
:10011000FEE7FEE7FEE7FEE7FEE7FEE799170008C9
:10012000ED00000840EA01039B0703D009E008C97D
:10013000121F08C0042AFAD203E011F8013B00F8AC
:10014000013B521EF9D27047D2B201E000F8012BF8
:10015000491EFBD270470022F6E710B513460A4647
:1001600004461946FFF7F0FF204610BD064C074D28
:1001700006E0E06840F0010394E807009847103477
:10018000AC42F6D3FFF7B6FF201E0008401E000861
:10019000FEE7704770B5044600F00AF90546601C9A
:1001A00002D004480078044400F002F9401BA04249
:1001B000FAD370BD000000202DE9F84FDFF8B891A8
:1001C000002409F1040A0AF1040B23460F270BF15E
:1001D000040EC9E00125A5402A40AA427DD1674E00
:1001E000D1F804C0ACEB0608B44532D014DCBCF145
:1001F000030F3AD009DCBCF1000F2AD0BCF1010F8B
:100200001CD0BCF1020F31D11DE0BCF1110F17D091
:10021000BCF1120F2AD119E0B8F5881F19D006DCFD
:10022000B8F5803F15D0B8F5801F1FD111E0B8F5A3
:10023000001F0ED0B8F5041F18D10AE0CB6815E0F6
:10024000CB681B1D12E0CB6808330FE0CB680C3382
:100250000CE08B682BB1012B4FF0080303D04561F4
:1002600004E0042302E0056100E00023FF2A01D836
:10027000064601E000F104064FEA840501D9A5F124
:100280002005D6F8008007FA05FC28EA0C0803FAD6
:1002900005F548EA0508C6F800804D68ED0062D50E
:1002A000374DAE6946F00106AE61AD6924F0030634
:1002B00005F001050095334D06EB050CDCF8085000
:1002C000A607360F07FA06F825EA0805DFF8B88012
:1002D000404503D14FF0000817E044E0DFF8AC8060
:1002E000404502D14FF001080FE0DFF8A4804045FF
:1002F00002D14FF0020808E0DFF89880404502D1B3
:100300004FF0030801E04FF0040808FA06F848EA45
:100310000508CCF808804D68D9F80060ED034D461B
:1003200001D5164300E096432E604D68DAF8006070
:10033000AD03554601D5164300E096432E604D6847
:10034000DBF80060ED025D4601D5164300E0964300
:100350002E604D68DEF80060AD02754601D516438B
:1003600000E096432E60641C0D682A46E5407FF449
:1003700031AFBDE8F88F000000040140000011100B
:10038000001002400000014000080140000C014044
:100390000010014000140140C2680A4201D04161CE
:1003A0007047016170470AB1016170470904FBE7BA
:1003B00001488068704700000000002070B504000C
:1003C0001BD094F83D00002520B984F83C5020460D
:1003D00000F04AFA242084F83D002068016821F0EA
:1003E0000101016000F0D6FB4D4A6168914201D8DD
:1003F0004C4900E04C49884201D2012070BD4B4974
:100400002368B0FBF1F15E6826F03F060E435E60A4
:100410006368934206D94FF4967359434FF47A7345
:10042000B1FBF3F12368491C1E6A26F03F063143F5
:1004300019626168914210D84900401EB0FBF1F288
:10044000521CC2F30B02042A01D2042022E0B0FBAA
:10045000F1F0401CC0F30B001CE0A368F3B301EB08
:10046000C10202EB0116421EB2FBF6F2521C42F42C
:100470008042120549D093B301EBC10202EB011196
:10048000401EB0FBF1F0401CC0F30B0040F4804074
:1004900040F400402168CA694CF6FF739A43104348
:1004A000C861D4E90701084321680A6822F0C00244
:1004B00010430860D4E9030101432068826848F2D0
:1004C000FF339A4311438160D4E905010843216851
:1004D000CA6822F0FF021043C86001E00EE016E097
:1004E0002068016841F0010101602564202084F842
:1004F0003D00256384F83E50002070BD01EB4106AD
:10050000421EB2FBF6F2521CB3E70120C2E701EB38
:100510004101401EB0FBF1F0401CC0F30B00B7E7F7
:10052000A086010080841E0000093D0040420F00AB
:100530002DE9F84F1F4690468A460446DDF828907C
:10054000FFF736FF054694F83D00202879D119239E
:10055000012277492046009501F020F80028F5D1C6
:1005600094F83C0001286CD0012084F83C002068FD
:100570000168C90703D1016841F0010101602068E9
:10058000016821F400610160222084F83D00102000
:1005900084F83E0000262664C4F824806785608DB8
:1005A00020856448E0622B464A465146204600F0CA
:1005B00020FF00287ED1208D5F4F68B1012814D024
:1005C0000228206801681ED041F480610160206823
:1005D0004169806900909DE02068416981690091CE
:1005E000016841F40071016094E02068016821F421
:1005F0008061016072B6206841698169009101687B
:1006000041F400710AE041F40061016072B62068B3
:10061000416981690091016821F48061016062B6DD
:1006200078E0032850D801280CD002284B464FF020
:1006300000023946204600950FD000F0AFFFC8BB3E
:1006400010E073E02A464946204601F026F888BBB0
:1006500020680069616A087053E000F09FFF48BBA2
:1006600072B61AE02068016821F48061016072B6F8
:1006700020680069616A0870606A401C6062208DB1
:10068000401E2085608D401E60854B460022394605
:100690002046009500F082FF60B92068016841F4AF
:1006A0000071016020680069616A0870606A401C1E
:1006B000606200E00EE0218D491E2185618D491E9A
:1006C000618562B621681AE02A464946204600F054
:1006D000E4FF10B10120BDE8F88F20680069616A6D
:1006E0000870606A401C6062218D491E2185618D01
:1006F000491E618521684A69D24352070AD40969B3
:100700000170606A401C6062208D401E2085608DF3
:10071000401E6085208D002883D1202084F83D0074
:1007200084F83E6084F83C600020D4E70220D2E7E1
:10073000020010000000FFFF040001002DE9F84F47
:100740001F4690468A460446DDF82890FFF730FEA3
:10075000054694F83D0020287FD119230122404905
:100760002046009500F01AFF002876D194F83C004E
:10077000012872D0012084F83C0020680168C90774
:1007800003D1016841F0010101602068016821F492
:1007900000610160212084F83D00102084F83E00B3
:1007A00000262664C4F824806785608D20852D4846
:1007B000E0622B464A465146204600F085FE90B93D
:1007C000206841698069009036E02A464946204603
:1007D00000F096FF50B1206C042804D12068016815
:1007E00041F4007101600120BDE8F88F606A216862
:1007F00000780861606A401C6062618D491E6185F5
:10080000218D491E89B2218522685369DB435B072C
:100810000BD451B100781061606A401C6062608D39
:10082000401E6085208D401E20852A464946204670
:1008300000F08EFE0028CED1208D0028C5D154F8BE
:100840003D0B016841F400710160202004F81E098D
:10085000E67766770020C7E7FFE70220C4E70000DD
:10086000020010000000FFFF10B586B000210091CB
:1008700001910291039100680F4988421AD10F4CEF
:10088000A06940F00800A061A069694600F0080076
:100890000490C0200090122001900320039008488B
:1008A000FFF78AFCE06940F40010E061E06900F4C1
:1008B0000010049006B010BD00540040001002402B
:1008C000000C014002488168027811448160704741
:1008D00000000020074810B5016841F010010160D8
:1008E000032000F08FF8002000F006F800F03EF83A
:1008F000002010BD0020024000B5014687B0002254
:10090000192000F05FF8192000F04EF813488169B3
:1009100041F400618161806905A900F400600690DE
:10092000684600F017F900F045F90D490D4AB0FB93
:10093000F1F10D48491E0260416040F2E7320021AA
:10094000C0E90321816000F00DFB10B1012007B068
:1009500000BD054800F022FBF9E70000001002404E
:1009600040420F00002C0140E40000200C4808B574
:10097000816941F001018161816901F0010100910A
:10098000C16941F08051C161C06900F080500090A0
:100990000448416821F0E06141F00071416008BD08
:1009A0000010024000000140002809DB00F01F0297
:1009B000012191404009800000F1E020C0F80011C1
:1009C00070470000F0B40E4B1B680C46C3F30223C3
:1009D000C3F10705042D00D90425191D072901D2EB
:1009E000002300E0DB1E012606FA05F1491E214026
:1009F00099409E40761E16403143F0BC00F0BBBFCC
:100A00000CED00E0064900F0070208684FF6FF030E
:100A1000184040EA0220034A104308607047000073
:100A20000CED00E00000FA052DE9F0470F46050047
:100A300061D0434E306800F00700B84209D23068F8
:100A400020F0070038433060306800F00700B842FB
:100A500051D128683B4C810712D5400703D5606807
:100A600040F4E06060602878000703D5606840F4D7
:100A7000605060606068A96820F0F0000843606022
:100A80002878C00728D06868012810D0216802287B
:100A900010D0890700292EDA616821F00301014393
:100AA0006160FFF785FC804641F288390DE02168DE
:100AB0008903EFE78901EDE7FFF77AFCA0EB080176
:100AC000494502D90320BDE8F0876068696800F0F5
:100AD0000C00B0EB810FEFD1306800F00700B84296
:100AE0000BD9306820F0070038433060306800F0E0
:100AF0000700B84201D00120E5E72878400705D576
:100B00006068E96820F4E0600843606028780007C6
:100B100006D56068296920F4605040EAC100606031
:100B200000F058F86168084AC1F30311515CC840ED
:100B30000649086006480068FFF7DEFE0020C2E7AD
:100B40000020024000100240081E00080C00002097
:100B5000040000200F2202600C4A536803F00303D4
:100B60004360536803F0F0038360536803F4E06369
:100B7000C36052684FF4E06303EAD20202610448A2
:100B8000006800F007000860704700000010024095
:100B9000002002400448054900684968044AC1F33E
:100BA0000221515CC84070470C0000200010024038
:100BB000181E00080448054900684968044AC1F342
:100BC000C221515CC84070470C0000200010024058
:100BD000181E000812A185B00FC98DE80F0014A0DF
:100BE000144A006804905168134801F00C03042B68
:100BF00010D0082B0ED1C1F38343C9031DF80300A5
:100C00000AD5516804AAC1F34041515C0A4A5043D5
:100C1000B0FBF1F005B0704708494843FAE700001F
:100C200002030405060708090A0B0C0D0E0F10102D
:100C3000010200000010024000127A0000093D008D
:100C40002DE9F84F040070D02078C04DC00749D07E
:100C50006868C0F38100012807D06868C0F381008C
:100C6000022809D16868C00306D52868800339D5F1
:100C700060680028E7D035E06068B0F5803F0BD0B1
:100C800010B1B0F5A02F11D0286820F48030286072
:100C9000286820F4802002E0286840F48030286032
:100CA000606890B1FFF784FB06460AE0286840F4CC
:100CB00080202860F0E700BFFFF77AFB801B6428E4
:100CC00073D828688003F7D50CE0FFF771FB064660
:100CD00005E000BFFFF76CFB801B6428F0D8286894
:100CE0008003F7D420789A4E80074FF001094FF027
:100CF000000839D5686810F00C0F07D06868C0F399
:100D00008100022809D16868C00306D428688007DA
:100D100014D52069012808D110E02069B0B1C6F8C7
:100D20000090FFF745FB074605E00AE1FFF740FBAF
:100D3000C01B0228C4D828688007F7D528686169D5
:100D400020F0F80040EAC10028600DE0C6F80080FD
:100D5000FFF72EFB074604E0FFF72AFBC01B022823
:100D600023D828688007F7D4207800072CD5794845
:100D7000A169D9B1C0F80090FFF71AFB074604E05B
:100D8000FFF716FBC01B02280FD8686A8007F7D54B
:100D900071484FF4FA510068B0FBF1F0009000BFC9
:100DA0000098411E0091FAD20EE080E0C0F8008069
:100DB000FFF7FEFA074604E0FFF7FAFAC01B022825
:100DC00075D8686A8007F7D42078400760D5E8694D
:100DD0000027C00008D4E86940F08050E861E86965
:100DE000012700F0805000905C480168C90513D4C9
:100DF0000168834641F480710160FFF7D9FA8246A9
:100E000006E000BFFFF7D4FAA0EB0A0064284ED832
:100E1000DBF80000C005F5D5E06801280AD008B16C
:100E2000052813D0286A20F001002862286A20F0E3
:100E3000040002E0286A40F001002862E06841F204
:100E4000883B98B1FFF7B4FA82460BE0286A40F07D
:100E500004002862EEE700BFFFF7AAFAA0EB0A0140
:100E600059455AD8286A8007F6D50CE0FFF7A0FA52
:100E7000824605E0FFF79CFAA0EB0A0159454CD8E1
:100E8000286A8007F6D41FB1E86920F08050E86135
:100E9000E06988B36968C1F38101022944D002285E
:100EA000C6F8608004D0FFF783FA044638E034E0E7
:100EB000FFF77EFA074604E0FFF77AFAC01B022824
:100EC0002BD828688001F7D4206AB0F5803F05D17F
:100ED0006868A16820F4003008436860D4E908011C
:100EE0000843696821F4741108436860C6F860908B
:100EF000FFF75EFA044606E025E000BFFFF758FA68
:100F0000001B022809D828688001F7D51BE000BF24
:100F1000FFF74EFA001B022802D90320BDE8F88F24
:100F200028688001F4D40EE00128F7D06868226AAE
:100F300000F48031914204D1616A00F4701088425B
:100F400001D00120EAE70020E8E70000001002409D
:100F500000004242800442420C0000200070004029
:100F60007047704710B5040003D094F83D0010B1ED
:100F700007E0012010BD002084F83C00204600F06E
:100F80000CF8022084F83D00211D206800F02EFCA2
:100F9000012084F83D00002010BD70470168CA6838
:100FA00042F00102CA600068816801F00701062969
:100FB00003D0016841F001010160002070477047D3
:100FC00070B50446006801694FF00005C943890700
:100FD00015D4C168C943890711D4E91E01610120F4
:100FE0002077206880698007204602D0FFF7E7FF5E
:100FF00004E000F098F8204600F096F82577206885
:101000000169C943490717D4C168C943490713D4C3
:101010006FF004010161022020772068806910F4DC
:10102000407F204602D0FFF7CAFF04E000F07BF8C3
:10103000204600F079F8257720680169C94309073F
:1010400016D4C168C943090712D46FF008010161C1
:10105000042020772068C0698007204602D0FFF76F
:10106000AEFF04E000F05FF8204600F05DF8257761
:1010700020680169C943C90617D4C168C943C906B4
:1010800013D46FF010010161082020772068C06937
:1010900010F4407F204602D0FFF791FF04E000F0FB
:1010A00042F8204600F040F8257720680169C943DE
:1010B000C90708D1C168C943C90704D1891E0161A4
:1010C000204600F033F820680169C943090609D4B5
:1010D000C168C943090605D46FF08001016120464B
:1010E000FFF73EFF20680169C943490609D4C1687A
:1010F000C943490605D46FF040010161204600F064
:101100001FF820680169C94389060BD4C168C94327
:10111000890607D46FF0200101612046BDE87040C8
:10112000FFF71FBF70BD704770470000006803499C
:10113000884201D1FFF7C6BB70470000002C014078
:10114000704770B5040004D094F83900002510B140
:1011500006E0012070BD84F83850204600F022F8E7
:10116000242084F839002068C16821F40051C1604E
:10117000204600F071FB2068016921F49041016173
:101180002068416921F02A0141612068C16841F469
:101190000051C160E563202084F8390084F83A00EA
:1011A000002070BD70B586B00024009401940294B4
:1011B0000394234E0368234902200322224DB342A5
:1011C00019D18B6943F480438B618B6903F48043AD
:1011D00004938B6943F004038B618969039201F0E6
:1011E000040104910102CDE9001069462846FEF78A
:1011F000E3FF28151BE0154EB3421FD1CB6943F422
:101200000033CB61CB6903F4003304938B6943F063
:1012100004038B618969039201F0040104910421A4
:10122000CDE9001069462846FEF7C6FF0820CDE943
:101230000004694628460294FEF7BEFF06B070BD62
:101240000038014000100240000801400044004006
:101250002DE9F843044690F83A00994616460D46A3
:1012600020284FD195B18EB194F83800012849D08B
:10127000012084F838000027E763222084F83A0030
:10128000FFF796F8A6858046E68531E00120BDE8A7
:10129000F883E08D401EE085A0684346B0F5805F8E
:1012A0004FF000024FF020012046CDF8009004D00E
:1012B00000F02EFB98B10320E9E700F029FB00289D
:1012C000F9D1206900282068406803D0C1B225F810
:1012D000011B0DE0C0F3080125F8021B08E020699E
:1012E00000282068406801D000F07F0005F8010B5D
:1012F000E08D0028CDD1202084F83A0084F83870A1
:101300000020C4E70220C2E72DE9F843044690F824
:1013100039001F4616460D46202850D1A5B19EB172
:1013200094F8380001284AD0012084F838004FF0A2
:101330000008C4F83C80212084F83900FFF738F811
:10134000A6848146E68426E00120BDE8F883E08C8F
:10135000401EE084A0684B46B0F5805F4FF000026D
:101360004FF080012046009703D000F0D1FAE8B991
:101370000DE000F0CDFAC8B928882168C0F3080054
:101380004860206908B16D1C05E0AD1C03E02168D0
:1013900015F8010B4860E08C0028D8D14B4600229C
:1013A00040212046009700F0B3FA08B10320CCE7B3
:1013B000202084F8390084F838800020C5E7022016
:1013C000C3E7FEE701684A69D24352050FD46FF4C0
:1013D00080624A61002140F8301F202242738173ED
:1013E000026942F00402026101730120704700208B
:1013F00070472DE9F84F0446C06A1E4692460D46D6
:1014000021680A6842F480620A60082807D001282F
:1014100005D010F5803F02D0206B112804D1206840
:10142000016841F4807101604FF0011853460022B9
:1014300041462046009600F0B1F8F0BB206908F163
:101440000109B0F5804F0FD00620216800EAD517BA
:1014500047F0F00008613346524608F10701204684
:1014600000F0D0F848BB03E0E8B240F001001BE018
:101470002168E8B20861334652464946204600F0EA
:10148000C1F8D0B92068416981690091016841F4CF
:10149000807101605346002241462046009600F0CC
:1014A0007DF850B947F0F100216808613346524693
:1014B0004946204600F0A6F800E001E0002800D0F0
:1014C0000120BDE8F88F0000F8B50446C06A1E464A
:1014D0000D461746082807D0012805D010F5803F93
:1014E00002D0206B122804D12068016841F4807179
:1014F0000160134600224FF001112046009600F0D3
:101500004DF808BB2069B0F5804F0ED00620216849
:1015100000EAD51040F0F000086133463A460B4926
:10152000204600F06FF878B902E005F0FE0000E018
:10153000E8B221680861054933463A46891F2046CA
:1015400000F060F8002800D00120F8BD080001007C
:1015500070B516460D4604460DE02046FFF732FFF3
:1015600008B1012070BD681C05D0FEF721FF801B6B
:10157000A84207D835B120684069C0434007ECD481
:10158000002070BD002044F8300F20216173A0734B
:10159000216941F0200121612073E2E72DE9F04744
:1015A0001E4690460D460446C1F30747DDF82090DD
:1015B00008E0701C06D0FEF7FBFEA0EB0900B0426D
:1015C0000FD876B12068012F18D0806925EA000075
:1015D0000004000C14D000214145EAD00020BDE8F1
:1015E000F087002044F8300F20216173A073216937
:1015F00041F02001216120730120F0E74069E5E717
:101600000121E9E72DE9F0479A4691460E46044646
:1016100000254FF02008C1F3074725E02068406906
:10162000C043400514D42068016841F40071016092
:1016300021686FF480604861256384F83D8084F8F8
:101640003E50206C40F00400206484F83C501FE0C1
:10165000B9F1FF3F08D0FEF7ABFEA0EB0A01494508
:101660000CD8B9F1000F09D02068012F13D0806980
:1016700026EA00000004000C0BD0CFE744F8305FEE
:1016800084F80D80A573206940F020002061257347
:101690000120BDE8F0874069EAE72DE9F041002527
:1016A00090460E460446202717E04069C043C00616
:1016B0000CD454F8301B6FF01000486144F81059F6
:1016C0006777A577206A2062257717E0FEF770FE1E
:1016D000A0EB0800B04208D83EB120684169C94378
:1016E0004906E2D40020BDE8F08144F8305F67731A
:1016F000A573206940F02000206125730120F2E7E6
:1017000070B516460D4604460DE02046FFF75AFE1A
:1017100008B1012070BD681C05D0FEF749FE801B92
:10172000A84207D835B120684069C0430006ECD410
:10173000002070BD002044F8300F20216173A07399
:10174000216941F0200121612073E2E7FEE7704743
:1017500070477047704710B590B028216846FEF773
:10176000FAFC14210AA8FEF7F6FC022000900120E2
:10177000049010200024059007946846FFF760FA53
:101780000F20CDE90A040C940D9400210AA80E94B0
:10179000FFF74AF910B010BD0D48016841F0010192
:1017A000016041680B4A1140416001680A4A1140DA
:1017B0000160016821F480210160416821F4FE018B
:1017C00041604FF41F0181600449C0030860704705
:1017D000001002400000FFF8FFFFF6FE08ED00E0F9
:1017E0000148FFF7EDBB0000E4000020F0B50268FF
:1017F000164B174C174D4FF08047984205D0B84212
:1018000003D0A04201D0A84203D122F070064A685A
:101810003243984205D0B84203D0A04201D0A8423A
:1018200003D122F44074CA6822434C6922F080023A
:10183000224302608A68C2620A688262984201D1C9
:101840000969016301214161F0BD0000002C0140E4
:1018500000040040000800402DE9F0410446006803
:101860000169E26821F44051114301612169A068D6
:101870000843616908432168CA6841F20C639A43CE
:101880000243CA6020684169A26921F44071114392
:1018900041611E49206864253226884202D1FFF743
:1018A00089F901E0FFF776F900EBC00101EB0011C7
:1018B00060686FF018078000B1FBF0F2B2FBF5F240
:1018C000B1FBF0F37A4303EB8202B1FBF0F306EBDA
:1018D0000212B2FBF5F2B3FBF5F302F0F00202EBF9
:1018E0000312B1FBF0F3B1FBF0F0B0FBF5F078437D
:1018F00003EB800006EB0010B0FBF5F0216800F070
:101900000F0010448860BDE8F081000000380140FD
:101910002DE9F041984617460E460446069D1DE007
:10192000681C1BD02DB1FEF743FDA0EB0800A842B8
:1019300014D92068C16821F4D071C1602068416960
:1019400021F001014161202084F8390084F83A0037
:10195000002084F838000320BDE8F081206800688A
:1019600036EA000004D00020B842D9D00020F3E7C6
:101970000120F9E7FEE70907090E002804DB00F162
:10198000E02080F80014704700F00F0000F1E02024
:1019900080F8141D704702E008C8121F08C1002A11
:1019A000FAD170477047002001E001C1121F002AE0
:1019B000FBD17047092801D8303000E03730C0B281
:1019C0007047000094B0FEF785FFFFF7C4FE0024C7
:1019D000F94810941194129413948069F64940F0D8
:1019E00004008861886900F004000090886940F074
:1019F000080088618869F14D00F00800009000221D
:101A000089142846FEF7CFFCA81401264FF00208DF
:101A1000CDE91006CDE9124810A92846FEF7CCFB07
:101A2000E848E7490160E849C0E90114B103C0E9A9
:101A3000034144618461C4610462FEF7BFFCE14874
:101A4000E24954304FF416550160C0E901540C27A7
:101A5000C460C0E904478461C461FFF772FBD948E0
:101A6000DB4994300160C0E90154C460C0E9044717
:101A70008461C461FFF765FB8DF83C408DF81C4024
:101A80000A258DF838408DF81D40022307AAD02181
:101A9000CC480095FEF752FE8DF820608DF821406D
:101AA000022308AAD021C7480095FEF747FE8DF80B
:101AB000248021208DF82500022309AAD021C148C5
:101AC0000095FEF73BFE03208DF834008DF83500BD
:101AD00002230DAAD021BB480095FEF72FFE04205B
:101AE0008DF8280011208DF8290002230AAAD021A0
:101AF000B4480095FEF722FE05208DF82C008DF8E5
:101B00002D0002230BAAD021AE480095FEF716FE49
:101B100006208DF8300020208DF8310002230CAA19
:101B2000D021A8480095FEF709FE1822A9A101A816
:101B3000FEF7F8FA07AC08AE09AF0DF134080DF165
:101B400028090DF12C0A0DF1300B012307AAD02131
:101B50009C480095FEF7F2FD0123621CD1219948B3
:101B60000095FEF7E5FC9DF81D000009FFF722FF38
:101B70008DF817009DF81D0000F00F00FFF71AFF09
:101B80008DF81800012308AAD0218E480095FEF791
:101B9000D5FD0123721CD1218A480095FEF7C8FCAF
:101BA0009DF821000009FFF705FF8DF814009DF84E
:101BB000210000F00F00FFF7FDFE8DF81500012356
:101BC00009AAD0217F480095FEF7B8FD01237A1CB1
:101BD000D1217C480095FEF7ABFC9DF8250000095B
:101BE000FFF7E8FE8DF811009DF8250000F00F00CA
:101BF000FFF7E0FE8DF8120001230CAAD0217148F6
:101C00000095FEF79BFD01230BF10102D1216D48E8
:101C10000095FEF78DFC9DF831000009FFF7CAFE24
:101C20008DF80E009DF8310000F00F00FFF7C2FEA6
:101C30008DF80F0001230BAAD02162480095FEF712
:101C40007DFD01230AF10102D1215E480095FEF7D6
:101C50006FFC9DF82D000009FFF7ACFE8DF80B001E
:101C60009DF82D0000F00F00FFF7A4FE8DF80C008A
:101C700001230AAAD02153480095FEF75FFD0123F6
:101C800009F10102D1214F480095FEF751FC9DF862
:101C900029000009FFF78EFE8DF808009DF8290045
:101CA00000F00F00FFF786FE8DF8090001230DAA52
:101CB000D02144480095FEF741FD012308F10102BF
:101CC000D12140480095FEF733FC9DF835000828E7
:101CD00014D2DFE800F013040C4048505860532041
:101CE0008DF8040041208DF80500542004E05320B5
:101CF0008DF80400552032E08DF80600314832237B
:101D000001220EA95430FFF7A3FA2E4832230122F4
:101D10000FA99430FFF79CFA9DF83800642842D050
:101D20009DF83C1064293ED074285FD074295DD0A2
:101D30006E2865D06E2963D0662802D066297FF4AC
:101D400004AF01224FF480511C48FEF72CFB002009
:101D50008DF83800F9E64D208DF804004F208DF8FD
:101D600005004E20C8E754208DF8040055208DF85A
:101D700005004520C0E757208DF8040045208DF868
:101D800005004420B8E754208DF8040048208DF861
:101D900005005520B0E746208DF8040052208DF84C
:101DA00005004920A8E707484FF4FA73172201A954
:101DB0005430FFF7A9FACAE700100240000C0140B6
:101DC0000054004010000020A086010000380140AF
:101DD000004400400000002000002000002000001F
:101DE0002D00003A00003A00000D0A004FF4805127
:101DF0000448FEF7D1FA4FF47A70FEF7CBF9A4E667
:101E000000229FE7000C01400000000000000000DD
:101E10000102030406070809000000000102030490
:101E2000401E000800000020100000009619000865
:101E3000501E00081000002018050000A619000818
:101E40000100000010000000000000000024F40069
:04000005080000ED02
:00000001FF
